:1000000034C000005AC0000058C0000056C00000B4
:1000100054C0000052C0000050C000004EC000009C
:100020004CC000004AC0000048C0000046C00000AC
:1000300044C00000F0C7000040C000003EC0000007
:100040000C9487093AC000000C94360B0C94680B92
:1000500034C0000032C0000030C000002EC00000DC
:100060002CC000002AC000008D0B11241FBECFEF52
:10007000D8E0DEBFCDBF11E0A0E0B1E0E2E2F8E100
:1000800002C005900D92A431B107D9F722E0A4E196
:10009000B1E001C01D92A932B207E1F710E0C5E35B
:1000A000D0E004C02197FE010E94090CC433D1079F
:1000B000C9F70E946D080C940F0CA2CFFC011082AE
:1000C00011821282138280E090E0A0E8BFE3848373
:1000D0009583A683B78380879187A287B387148689
:1000E00015861686178608952F923F924F925F923B
:1000F0006F927F928F929F92AF92BF92CF92DF9238
:10010000EF92FF920F931F93CF93DF93CDB7DEB79C
:100110002C970FB6F894DEBF0FBECDBFF601A081BD
:10012000A1111DC081E0808383E081832C960FB6EE
:10013000F894DEBF0FBECDBFDF91CF911F910F911D
:10014000FF90EF90DF90CF90BF90AF909F908F90F7
:100150007F906F905F904F903F902F900895DE8238
:10016000CD8217013A8329835A87498778876F831D
:100170009C878B878181833009F4EBC2C8F581307D
:1001800009F46AC0823009F4C4C1AB85BC851896F5
:10019000CD90DD90ED90FC901B97E981FA81208550
:1001A000318542855385C701B6010E940A09181698
:1001B0000CF41EC6A7019601AB85BC856D917D919F
:1001C0008D919C91C2D7F801208531854285538558
:1001D0000E94830987FD0CC6D1011D921D921D92BC
:1001E0001C92139780E090E0A0E8BFE3F101C2C148
:1001F000843009F4D7C3853041F6AB85BC851496AD
:10020000CD90DD90ED90FC901797E981FA814480C4
:10021000558066807780A3019201C701B601FAD7A5
:1002200018160CF4F2C4A7019601AB85BC856D913C
:100230007D918D919C9189D7F801248135814681EA
:1002400057810E94830987FDE0C4D1011D921D9250
:100250001D921C92139730C0AB85BC851496CD902F
:10026000DD90ED90FC901797E981FA8144805580EC
:1002700066807780A3019201C701B601CBD718161B
:1002800034F1A7019601AB85BC851C966D917D91DB
:100290008D919C911F9759D7F80124813581468112
:1002A00057810E94830987FD12C0D1011C961D92BF
:1002B0001D921D921C921F9780E090E0A0E8BFE382
:1002C000F10184839583A683B78383E037C0EB85F0
:1002D000FC8580809180A280B380A981BA818D91B4
:1002E0009D910D90BC91A02D89839A83AB83BC8393
:1002F0009C01AD01C501B4018DD7181624F1A501EB
:100300009401EB85FC8564857585868597851DD769
:10031000D8012D913D914D915C91F5D787FDEBC5AD
:10032000F101148615861686178680E090E0A0E815
:10033000BFE380839183A283B38385E0AD81BE81D7
:1003400011968C93F3CEA3019201C701B60162D737
:10035000181614F1A7019601EB85FC85608571855F
:1003600082859385F2D6D80114962D913D914D91B9
:100370005C911797C8D787FD0FC0F10110861186D1
:100380001286138680E090E0A0E8BFE38483958323
:10039000A683B78382E0D2CF29813A814B815C81E9
:1003A000C501B40137D7181604F1A5019401EB85F6
:1003B000FC856085718582859385C7D6D8012D918E
:1003C0003D914D915C919FD787FD0FC0F101108643
:1003D00011861286138680E090E0A0E8BFE3808358
:1003E0009183A283B38384E0A9CFEB85FC85C0848D
:1003F000D184E284F384A985BA8518962D913D9124
:100400004D915C911B97C701B6017DD787FD14C044
:1004100020E030E040E85FE3F1016085718582858E
:100420009385F8D6811108C0D10118961D921D92AE
:100430001D921C921B977ACEEF81F885208531851D
:1004400042855385C701B601E5D61816BCF020E0F9
:1004500030E0A901D10118966D917D918D919C910B
:100460001B97D8D681110AC080E090E0A0E8BFE3D6
:10047000F10180879187A287B38758CEAB85BC8571
:100480001C96CD90DD90ED90FC901F97EF81F88544
:100490002485358546855785C701B601BBD6181614
:1004A000BCF020E030E0A901D1011C966D917D9156
:1004B0008D919C911F97AED681110AC080E090E08B
:1004C000A0E8BFE3F10184879587A687B7872ECE82
:1004D000A985BA851C962D913D914D915C911F97F0
:1004E000C701B60110D787FD21CE20E030E040E8FB
:1004F0005FE3F10164857585868597858BD68111CB
:1005000015CED1011C961D921D921D921C921F9713
:100510000DCEEB85FC85C084D184E284F384A9816F
:10052000BA8118964D905D906D907C901B97A301B9
:100530009201C701B6016ED618160CF1A7019601FB
:10054000EB85FC856485758586859785FED5D80104
:1005500018962D913D914D915C911B97D4D687FDB6
:100560000EC0F101148615861686178680E090E08D
:10057000A0E8BFE380879187A287B387A6CEEB85EB
:10058000FC8580809180A280B380A981BA812D9161
:100590003D914D915C91C501B4013CD618160CF407
:1005A0004BC0D8018D919D910D90BC91A02D898358
:1005B0009A83AB83BC83A5019401EB85FC8564859C
:1005C000758586859785C1D529813A814B815C8166
:1005D0009AD687FD12C0D1011C961D921D921D92C4
:1005E0001C921F9780E090E0A0E8BFE3F1018083B8
:1005F0009183A283B38386E0A1CEA5019401EB850C
:10060000FC8564817581868197819FD59B01AC01B2
:1006100069817A818B819C81FDD518166CF0D1019E
:1006200014961D921D921D921C92179780E090E0E7
:10063000A0E8BFE3F101D3CEA3019201C701B60147
:10064000E9D5181614F1A7019601EB85FC856481A4
:1006500075818681978179D5D80118962D913D9124
:100660004D915C911B974FD687FD0FC0F10114820D
:1006700015821682178280E090E0A0E8BFE38087B1
:100680009187A287B38781E059CEEB85FC85C4842E
:10069000D584E684F784A985BA851C962D913D9171
:1006A0004D915C911F97C701B6012DD687FD0DC0F6
:1006B00020E030E040E85FE3F101648575858685E0
:1006C0009785A8D5882309F41CCFAF81B8851C96DF
:1006D0002D913D914D915C911F97C701B6019AD51F
:1006E000181664F020E030E0A901F10164857585F9
:1006F000868597858FD5882309F4E0CEAB85BC85A8
:100700001496CD90DD90ED90FC901797EF81F885D1
:100710002481358146815781C701B6017BD51816E2
:100720000CF4E0C320E030E0A901D10114966D91F2
:100730007D918D919C9117976DD58111D3C380E0E8
:1007400090E0A0E8BFE3F10184839583A683B7839B
:10075000EDCCEB85FC85C080D180E280F380A9815F
:10076000BA814D905D906D907C90A3019201C7017C
:10077000B60150D51816DCF0A7019601EB85FC8573
:100780006085718582859385E0D4D8012D913D9156
:100790004D915C91B8D587FD0AC0F1011086118694
:1007A0001286138680E090E0A0E8BFE320CFEB85BF
:1007B000FC8584849584A684B784A981BA811C961B
:1007C0008D919D910D90BC91A02D89839A83AB83CF
:1007D000BC839C01AD01C501B4011CD518160CF1F8
:1007E000A5019401EB85FC856085718582859385E3
:1007F000ACD4D8011C962D913D914D915C911F97E1
:1008000082D587FD81C3F101108611861286138679
:1008100080E090E0A0E8BFE384879587A687B7874C
:10082000B9CDA3019201C701B601F4D41816BCF0EA
:10083000A7019601EB85FC8564817581868197818E
:1008400084D4D8012D913D914D915C915CD587FD6B
:1008500006C0F101148215821682178266CD2981A5
:100860003A814B815C81C501B401D4D418160CF1D6
:10087000A5019401EB85FC85648175818681978152
:1008800064D4D8011C962D913D914D915C911F9798
:100890003AD587FD0EC0F1011482158216821782A7
:1008A00080E090E0A0E8BFE384879587A687B787BC
:1008B000EACEEB85FC85C084D184E284F384A985EB
:1008C000BA8518962D913D914D915C911B97C7016A
:1008D000B60119D587FD0DC020E030E040E85FE3A8
:1008E000F101608571858285938594D4882309F40C
:1008F0009BCDAF81B88518962D913D914D915C911E
:100900001B97C701B60186D4181664F020E030E0CA
:10091000A901F10160857185828593857BD4882347
:1009200009F4A2CDAB85BC851496CD90DD90ED90F9
:10093000FC901797EF81F885248135814681578196
:10094000C701B60167D4181674F020E030E0A901A1
:10095000D10114966D917D918D919C9117975AD4E8
:10096000882309F4ECCEE985FA8524813581468116
:100970005781C701B601C7D487FDD8CB20E030E04E
:1009800040E85FE3F101648175818681978142D4FB
:100990008111CCCBD10114961D921D921D921C92F7
:1009A0001797C4CBAB85BC851896CD90DD90ED90A4
:1009B000FC901B97E981FA8140845184628473849E
:1009C000A3019201C701B60125D41816ECF0A701C6
:1009D0009601AB85BC856D917D918D919C91B5D330
:1009E000F80120853185428553858DD487FD0CC063
:1009F000D1011D921D921D921C92139780E090E0F0
:100A0000A0E8BFE3F1013BCEEB85FC8584809580B7
:100A1000A680B780A981BA8114968D919D910D9081
:100A2000BC91A02D89839A83AB83BC839C01AD01CB
:100A3000C501B401EFD31816CCF0A5019401EB85E4
:100A4000FC8560817181828193817FD3D801149666
:100A50002D913D914D915C91179755D487FD5DC2C5
:100A6000F10110821182128213828CCCA3019201B7
:100A7000C701B601CFD318160CF1A7019601EB857B
:100A8000FC8564857585868597855FD3D801189622
:100A90002D913D914D915C911B9735D487FD0EC0F2
:100AA000F101148615861686178680E090E0A0E88E
:100AB000BFE380879187A287B3873FCC29813A81A2
:100AC0004B815C81C501B401A5D318160CF1A501B9
:100AD0009401EB85FC85648575858685978535D37E
:100AE000D80114962D913D914D915C9117970BD49F
:100AF00087FD0EC0F101148615861686178680E0E4
:100B000090E0A0E8BFE384839583A683B78373CD89
:100B1000EB85FC85C484D584E684F784AF81B885F1
:100B20001C962D913D914D915C911F97C701B60187
:100B300071D3181664F020E030E0A901F10164855A
:100B400075858685978566D3882309F4B7CCA985F2
:100B5000BA851C962D913D914D915C911F97C701CF
:100B6000B601D1D387FD0DC020E030E040E85FE35F
:100B7000F10164857585868597854CD3882309F4B2
:100B8000C0CCAB85BC85CD90DD90ED90FC90E98527
:100B9000FA852081318142815381C701B601B3D3E7
:100BA00087FD12C020E030E040E85FE3D1016D91A5
:100BB0007D918D919C912ED3811106C0F1011082FF
:100BC000118212821382B2CAAF81B8852D913D91F4
:100BD0004D915C91C701B6011DD318160CF4A6CA3D
:100BE00020E030E0A901F10160817181828193816F
:100BF00011D381119BCA80E090E0A0E8BFE3F1012E
:100C000080839183A283B38391CAEB85FC8584841E
:100C10009584A684B784A981BA811C962D913D91B3
:100C20004D915C911F97C501B401F4D218160CF4D4
:100C30004AC0D8011C968D919D910D90BC91A02D1C
:100C400089839A83AB83BC83A5019401EB85FC85E2
:100C5000608171818281938178D229813A814B812F
:100C60005C8151D387FD0CC0D1011D921D921D9254
:100C70001C92139780E090E0A0E8BFE3F10114CE4E
:100C8000A5019401EB85FC8560857185828593853E
:100C90005CD29B01AC0169817A818B819C81BAD243
:100CA00018168CF0D10118961D921D921D921C925F
:100CB0001B9780E090E0A0E8BFE3F101848795876F
:100CC000A687B78790CBA3019201C701B601A2D234
:100CD0001816CCF0A7019601EB85FC85608571851F
:100CE0008285938532D2D80114962D913D914D91F4
:100CF0005C91179708D387FD06C0F1011086118615
:100D000012861386FCCEEB85FC85C080D180E28004
:100D1000F380A985BA852D913D914D915C91C701D4
:100D2000B601F1D287FD0DC020E030E040E85FE37E
:100D3000F10160817181828193816CD2882309F4F1
:100D40003DCFAF81B8852D913D914D915C91C7010B
:100D5000B60160D2181664F020E030E0A901F1017C
:100D6000608171818281938155D2882309F443CFB8
:100D7000AB85BC851896CD90DD90ED90FC901B97CF
:100D8000EF81F8852085318542855385C701B601FD
:100D900041D2181674F020E030E0A901D101189674
:100DA0006D917D918D919C911B9734D2882309F48C
:100DB0005BCBE985FA852085318542855385C7015E
:100DC000B601A1D287FDB2C920E030E040E85FE380
:100DD000D10118966D917D918D919C911B971AD29E
:100DE0008111A4C9F10110861186128613869EC94D
:100DF000EB85FC85C484D584E684F784A981BA8117
:100E00001C962D913D914D915C911F97C701B601A4
:100E100001D218168CF1F80184849584A684B784D5
:100E2000A7019601AB85BC856D917D918D919C91BB
:100E30008CD1A501940167D287FD06C0F101108213
:100E4000118212821382E4CCA7019601EB85FC8506
:100E5000648175818681978178D19B01AC01C50140
:100E6000B401D8D1181644F0D10114961D921D92E8
:100E70001D921C9217971DCFEB85FC85C080D180F9
:100E8000E280F380A985BA852D913D914D915C91C9
:100E9000C701B60138D287FD0DC020E030E040E840
:100EA0005FE3F1016081718182819381B3D18823F5
:100EB00009F484CEAF81B8852D913D914D915C911F
:100EC000C701B601A7D118160CF418CC20E030E009
:100ED000A901F10160817181828193819BD181118E
:100EE0000DCC89CEA985BA8514962D913D914D9151
:100EF0005C9117973ECDA3019201C701B6018AD13B
:100F000018160CF027CA51CAA3019201C701B601F5
:100F100081D118160CF08CCCABCCA3019201C70187
:100F2000B60178D118160CF0A8CDD1CDCF92DF92B2
:100F3000EF92FF920F931F9381ECC82E81E0D82E81
:100F400093E1E92E92E0F92E03E012E023EF31E085
:100F500043EE51E063ED71E083EC91E0C5D810926F
:100F600023021092240210922502109226021F9151
:100F70000F91FF90EF90DF90CF90089583E192E082
:100F80009DC80895089526E030E040E855E260E00D
:100F900070E090E080E000C01092170110921601FE
:100FA00089309105E0F48952984FFC0132C4E00782
:100FB000E907F007F307F607F907FC07FF0705083D
:100FC00081E090E0909317018093160184E291E014
:100FD000EDC282E090E0909317018093160108958E
:100FE00084E090E0F8CF88E090E0F5CF80E190E0F9
:100FF000F2CF80E290E0EFCF80E490E0ECCF80E8A9
:1010000090E09093170180931601809116019091C2
:1010100017019160E0CF1F920F920FB60F9211242B
:101020002F933F934F935F936F937F938F939F93F0
:10103000AF93BF93EF93FF9386E997EE909385006C
:101040008093840032D0FF91EF91BF91AF919F9137
:101050008F917F916F915F914F913F912F910F9061
:101060000FBE0F901F90189586E997EE909385001C
:1010700080938400AFE6B0E08C918E7F8C93E0E8A3
:10108000F0E080818C7F8083E1E8F0E08081877EE2
:10109000808380818460808380818C7F80838C9139
:1010A00081608C93089581E008958091180191E00A
:1010B000980F90931801882349F021E030E0309395
:1010C0001A012093190180931801089578942EDF56
:1010D000F894809118018150F6CFCF93DF9310924E
:1010E0002802109227025DD14EDFC0910001D091FD
:1010F00001011982188242DFF894B6DF2881398114
:1011000081E0232B09F080E0809327027894789483
:1011100080912702811107C034DFF89490E080E0CD
:10112000DF91CF9108952881398181E0232B09F443
:1011300080E0809328029091280281E0911180E064
:1011400080932702B0DF1EDFE3CF5058BB27AA27CA
:101150000ED09FC090D030F095D020F031F49F3F5A
:1011600011F41EF485C00EF4E095E7FB7BC0E92F77
:10117000A1D080F3BA17620773078407950718F0A8
:1011800071F49EF5B9C00EF4E0950B2EBA2FA02D88
:101190000B01B90190010C01CA01A0011124FF2724
:1011A000591B99F0593F50F4503E68F11A16F0401F
:1011B000A22F232F342F4427585FF3CF469537951E
:1011C0002795A795F0405395C9F77EF41F16BA0BE3
:1011D000620B730B840BBAF09150A1F0FF0FBB1F91
:1011E000661F771F881FC2F70EC0BA0F621F731FDA
:1011F000841F48F4879577956795B795F7959E3F37
:1012000008F0B3CF9395880F08F09927EE0F9795C4
:101210008795089503D008F481E00895990F000898
:10122000550FAA0BE0E8FEEF16161706E807F907B8
:10123000C0F012161306E407F50798F0621B730B53
:10124000840B950B39F40A2661F0232B242B252BD4
:1012500021F408950A2609F4A140A6958FEF811D77
:10126000811D089597F99F6780E870E060E0089518
:101270009FEF80EC089500240A94161617061806AE
:101280000906089500240A9412161306140605068A
:101290000895092E0394000C11F4882352F0BB0F1B
:1012A00040F4BF2B11F460FF04C06F5F7F4F8F4F7E
:1012B0009F4F089557FD9058440F551F59F05F3FB9
:1012C00071F04795880F97FB991F61F09F3F79F068
:1012D00087950895121613061406551FF2CF4695EA
:1012E000F1DF08C0161617061806991FF1CF86956C
:1012F0007105610508940895E894BB276627772750
:10130000CB0197F908958ADF08F48FEF08951F92B3
:101310000F920FB60F9211242F933F938F939F93A9
:10132000AF93BF9380911C0190911D01A0911E016C
:10133000B0911F0130911B0123E0230F2D3758F589
:101340000196A11DB11D20931B0180931C01909358
:101350001D01A0931E01B0931F0180912001909167
:101360002101A0912201B09123010196A11DB11D7F
:101370008093200190932101A0932201B093230137
:10138000BF91AF919F918F913F912F910F900FBE81
:101390000F901F90189526E8230F0296A11DB11DEE
:1013A000D2CF789484B5826084BD84B5816084BDD9
:1013B00085B5826085BD85B5816085BDEEE6F0E0CE
:1013C000808181608083E1E8F0E01082808182602A
:1013D0008083808181608083E0E8F0E080818160AB
:1013E0008083E1EBF0E0808184608083E0EBF0E0DB
:1013F000808181608083EAE7F0E08081846080837F
:101400008081826080838081816080838081806828
:1014100080831092C1000895FC01918D228D892F47
:1014200090E0805C9F4F821B91098F7399270895EC
:10143000FC01918D828D981731F0828DE80FF11D9E
:10144000858D90E008958FEF9FEF0895FC01918DB9
:10145000828D981761F0A28DAE0FBF2FB11D5D96E2
:101460008C91928D9F5F9F73928F90E008958FEF84
:101470009FEF0895FC01538D448D252F30E0842F7C
:1014800090E0821B930B541710F0CF9608950197AC
:101490000895FC01A48DA80FB92FB11DA35ABF4F09
:1014A0002C91848D90E001968F739927848FA68963
:1014B000B7892C93A089B1898C91837080648C93B7
:1014C000938D848D981306C00288F389E02D808166
:1014D0008F7D80830895CF93DF93EC01888D8823DF
:1014E000B1F0AA89BB89E889F9898C9185FD03C08F
:1014F000808186FD0CC00FB607FCF7CF8C9185FF6D
:10150000F2CF808185FFEDCFCE01C3DFEACFDF913F
:10151000CF910895EF92FF920F931F93CF93DF9394
:10152000EC0181E0888F9B8D8C8D98131AC0E8891F
:10153000F989808185FF15C09FB7F894EE89FF89EE
:101540006083E889F98980818370806480839FBF8C
:1015500081E090E0DF91CF911F910F91FF90EF908C
:101560000895F62E0B8D10E00F5F1F4F0F7311279C
:10157000E02E8C8D8E110BC00FB607FCFACFE889D8
:10158000F989808185FFF5CFCE0183DFF2CFEB8D26
:10159000EC0FFD2FF11DE35AFF4FF0829FB7F89437
:1015A0000B8FEA89FB8980818062D0CFCF92DF9256
:1015B000EF92FF921F93CF93DF93EC016A017B01BF
:1015C000122FE889F98982E08083C11481EED80660
:1015D000E104F10499F060E079E08DE390E0A70187
:1015E0009601F5D021503109410951095695479589
:1015F00037952795211580E1380790F0E889F9891A
:10160000108260E874E88EE190E0A7019601DFD0D7
:10161000215031094109510956954795379527952C
:10162000EC85FD853083EE85FF852083188EEC895F
:10163000FD891083EA89FB89808180618083EA8942
:10164000FB89808188608083EA89FB89808180684A
:101650008083EA89FB8980818F7D8083DF91CF91B0
:101660001F91FF90EF90DF90CF9008951F920F92FF
:101670000FB60F9211242F938F939F93EF93FF93A5
:10168000E0913401F09135018081E0913A01F091CF
:101690003B0182FD1BC0908180913D018F5F8F7364
:1016A00020913E01821741F0E0913D01F0E0EC5DB8
:1016B000FE4F958F80933D01FF91EF919F918F9108
:1016C0002F910F900FBE0F901F9018958081F4CF2F
:1016D0001F920F920FB60F9211242F933F934F93A7
:1016E0005F936F937F938F939F93AF93BF93EF938A
:1016F000FF9384E291E0CDDEFF91EF91BF91AF9136
:101700009F918F917F916F915F914F913F912F9119
:101710000F900FBE0F901F901895E4E2F1E0138236
:10172000128288EE93E0A0E0B0E084839583A683E4
:10173000B78386E091E09183808385EC90E0958784
:10174000848784EC90E09787868780EC90E0918B8B
:10175000808B81EC90E0938B828B82EC90E0958B78
:10176000848B86EC90E0978B868B118E128E138E75
:10177000148E0895AF92BF92CF92DF92EF92FF92B4
:101780000F931F93CF93DF936C017B018B01040FA9
:10179000151FEB015E01AE18BF08C017D10759F045
:1017A0006991D601ED91FC910190F081E02DC60187
:1017B0000995892B79F7C501DF91CF911F910F9181
:1017C000FF90EF90DF90CF90BF90AF900895A1E28F
:1017D0001A2EAA1BBB1BFD010DC0AA1FBB1FEE1FAB
:1017E000FF1FA217B307E407F50720F0A21BB30BF6
:1017F000E40BF50B661F771F881F991F1A9469F772
:1018000060957095809590959B01AC01BD01CF01CD
:101810000895EE0FFF1F0590F491E02D0994F894C0
:02182000FFCFF8
:101822001401000000008A0ABA0B3A0A6B0A0C0A79
:04183200260A180A60
:00000001FF
